{
  "contractName": "BladeUtils",
  "abi": [
    {
      "constant": true,
      "inputs": [
        {
          "name": "wh",
          "type": "uint256"
        }
      ],
      "name": "toRazors",
      "outputs": [
        {
          "name": "",
          "type": "uint256"
        }
      ],
      "payable": false,
      "stateMutability": "pure",
      "type": "function"
    },
    {
      "constant": true,
      "inputs": [
        {
          "name": "razors",
          "type": "uint256"
        }
      ],
      "name": "toWh",
      "outputs": [
        {
          "name": "",
          "type": "uint256"
        }
      ],
      "payable": false,
      "stateMutability": "pure",
      "type": "function"
    }
  ],
  "bytecode": "0x61010b610030600b82828239805160001a6073146000811461002057610022565bfe5b5030600052607381538281f30073000000000000000000000000000000000000000030146060604052600436106060576000357c0100000000000000000000000000000000000000000000000000000000900463ffffffff1680631d9fbc3e146065578063d828c75214608f575b600080fd5b6079600480803590602001909190505060b9565b6040518082815260200191505060405180910390f35b60a3600480803590602001909190505060d2565b6040518082815260200191505060405180910390f35b600060026103e8830281151560ca57fe5b049050919050565b60006002820290509190505600a165627a7a7230582029c8dcb96eabcd128df612d1dfe4556f83b7209805fa6d543fe2740bc4ca85ae0029",
  "source": "pragma solidity ^0.4.19;\r\n\r\nlibrary BladeUtils{\r\n\r\n    function toRazors(uint256 wh) public pure returns (uint256) {\r\n        return wh * 2;\r\n    }\r\n\r\n    function toWh(uint256 razors) public pure returns (uint256) {\r\n        return uint256(razors * 1000 / 2);\r\n    }\r\n}\r\n",
  "sourcePath": "/Users/sergiopereira/Code/EnergyGridProject/contracts/bladeutils.sol",
  "compiler": {
    "name": "solc",
    "version": "0.4.21+commit.dfe3193c.Emscripten.clang"
  },
  "schemaVersion": "2.0.0",
  "updatedAt": "2018-05-04T17:04:54.624Z"
}