{
  "contractName": "Consumer",
  "abi": [
    {
      "inputs": [
        {
          "name": "supContract",
          "type": "address"
        }
      ],
      "payable": false,
      "stateMutability": "nonpayable",
      "type": "constructor"
    },
    {
      "anonymous": false,
      "inputs": [
        {
          "indexed": false,
          "name": "success",
          "type": "bool"
        },
        {
          "indexed": false,
          "name": "message",
          "type": "uint16"
        },
        {
          "indexed": false,
          "name": "fromGrid",
          "type": "bool"
        }
      ],
      "name": "PowerSourceChanged",
      "type": "event"
    },
    {
      "anonymous": false,
      "inputs": [
        {
          "indexed": false,
          "name": "success",
          "type": "bool"
        },
        {
          "indexed": false,
          "name": "message",
          "type": "uint16"
        }
      ],
      "name": "TopUpDone",
      "type": "event"
    },
    {
      "constant": true,
      "inputs": [],
      "name": "getSupplierAddress",
      "outputs": [
        {
          "name": "",
          "type": "address"
        }
      ],
      "payable": false,
      "stateMutability": "view",
      "type": "function"
    },
    {
      "constant": false,
      "inputs": [
        {
          "name": "wattHour",
          "type": "uint256"
        }
      ],
      "name": "consume",
      "outputs": [],
      "payable": false,
      "stateMutability": "nonpayable",
      "type": "function"
    },
    {
      "constant": true,
      "inputs": [],
      "name": "getRazorBallance",
      "outputs": [
        {
          "name": "",
          "type": "uint256"
        }
      ],
      "payable": false,
      "stateMutability": "view",
      "type": "function"
    }
  ],
  "bytecode": "0x6060604052341561000f57600080fd5b60405160208061052b83398101604052808051906020019091905050806000806101000a81548173ffffffffffffffffffffffffffffffffffffffff021916908373ffffffffffffffffffffffffffffffffffffffff160217905550506104b08061007b6000396000f300606060405260043610610057576000357c0100000000000000000000000000000000000000000000000000000000900463ffffffff1680632aa5d4801461005c578063483f31ab146100855780634d185f7d146100a8575b600080fd5b341561006757600080fd5b61006f6100fd565b6040518082815260200191505060405180910390f35b341561009057600080fd5b6100a660048080359060200190919050506101d6565b005b34156100b357600080fd5b6100bb61045b565b604051808273ffffffffffffffffffffffffffffffffffffffff1673ffffffffffffffffffffffffffffffffffffffff16815260200191505060405180910390f35b60008060009054906101000a900473ffffffffffffffffffffffffffffffffffffffff1673ffffffffffffffffffffffffffffffffffffffff1663e1ab94fc306040518263ffffffff167c0100000000000000000000000000000000000000000000000000000000028152600401808273ffffffffffffffffffffffffffffffffffffffff1673ffffffffffffffffffffffffffffffffffffffff168152602001915050602060405180830381600087803b15156101ba57600080fd5b5af115156101c757600080fd5b50505060405180519050905090565b600080826000809054906101000a900473ffffffffffffffffffffffffffffffffffffffff1673ffffffffffffffffffffffffffffffffffffffff16635f2e56346040518163ffffffff167c0100000000000000000000000000000000000000000000000000000000028152600401602060405180830381600087803b151561025e57600080fd5b5af1151561026b57600080fd5b50505060405180519050031115156103005760008060146101000a81548160ff0219169083151502179055507f42629f88f3ae93c06fc3b27ba90f7aa65bf88614eb2c87e6b08e19919166a7d8600160c8600060149054906101000a900460ff1660405180841515151581526020018361ffff16815260200182151515158152602001935050505060405180910390a1610457565b73__BladeUtils____________________________63d828c752836040518263ffffffff167c01000000000000000000000000000000000000000000000000000000000281526004018082815260200191505060206040518083038186803b151561036a57600080fd5b5af4151561037757600080fd5b5050506040518051905090506000809054906101000a900473ffffffffffffffffffffffffffffffffffffffff1673ffffffffffffffffffffffffffffffffffffffff1663f59b865030836040518363ffffffff167c0100000000000000000000000000000000000000000000000000000000028152600401808373ffffffffffffffffffffffffffffffffffffffff1673ffffffffffffffffffffffffffffffffffffffff16815260200182815260200192505050600060405180830381600087803b151561044657600080fd5b5af1151561045357600080fd5b5050505b5050565b60008060009054906101000a900473ffffffffffffffffffffffffffffffffffffffff169050905600a165627a7a7230582014887d2e45be71578572ad95d8276b48ab1d6b3d2fc76c2b8e9a71e849a03b450029",
  "source": "pragma solidity ^0.4.19;\r\n\r\nimport \"./bladeutils.sol\";\r\nimport \"./supplier.sol\";\r\n\r\ncontract Consumer {\r\n\r\n    //reference of the supplier contract\r\n    Supplier private supplierContract;\r\n    //true is consuming from the windmill\r\n    //false is consuming from the grid\r\n    bool private source;\r\n\r\n    event PowerSourceChanged(bool success, uint16 message, bool fromGrid);\r\n    event TopUpDone(bool success, uint16 message);\r\n    /**\r\n    Ensures that the consumer has enough ballance\r\n    */\r\n    modifier _hasBallance(uint256 wattHour)  {\r\n        if(getRazorBallance() - wattHour >= 0) {\r\n            source = true;\r\n            emit PowerSourceChanged(true, 200, source);\r\n            _;\r\n        } else {\r\n            source = false;\r\n            emit PowerSourceChanged(true, 200, source);\r\n        }\r\n    }\r\n    /**\r\n    Creates an instance of the consumer contract.\r\n    The Supplier contract addres must be informed.\r\n    */\r\n    function Consumer(address supContract) public {\r\n        supplierContract = Supplier(supContract);\r\n    }\r\n\r\n    /**\r\n    Displays the supplier for this contract */\r\n    function getSupplierAddress() public view returns (address) {\r\n        return (supplierContract);\r\n    }\r\n\r\n    /***\r\n    Informs the consumer power. If  the storage level is empty\r\n    the user must consume from the grid, otherwise \r\n    the system will debit razors from the user account.\r\n    */\r\n    function consume(uint256 wattHour) public {\r\n        if(supplierContract.getStorageLevel() - wattHour <= 0) {\r\n            source = false;\r\n            emit PowerSourceChanged(true, 200, source);\r\n        }\r\n        else{\r\n            uint256 valueToDebit = BladeUtils.toRazors(wattHour);\r\n            supplierContract.debitFromConsumer(this, valueToDebit);\r\n        }\r\n    }\r\n    /**\r\n    Returns the razor ballance\r\n    */\r\n    function getRazorBallance() public view returns(uint256) {       \r\n        return supplierContract.getConsumerBalance(this);\r\n    }\r\n}",
  "sourcePath": "/Users/sergiopereira/Code/EnergyGridProject/contracts/consumer.sol",
  "compiler": {
    "name": "solc",
    "version": "0.4.21+commit.dfe3193c.Emscripten.clang"
  },
  "schemaVersion": "2.0.0",
  "updatedAt": "2018-05-04T17:04:54.624Z"
}