{
  "contractName": "Supplier",
  "abi": [
    {
      "inputs": [],
      "payable": false,
      "stateMutability": "nonpayable",
      "type": "constructor"
    },
    {
      "anonymous": false,
      "inputs": [
        {
          "indexed": false,
          "name": "success",
          "type": "bool"
        },
        {
          "indexed": false,
          "name": "returnCode",
          "type": "uint16"
        },
        {
          "indexed": false,
          "name": "accumulatedPower",
          "type": "uint256"
        }
      ],
      "name": "GeneratedPowerIncremented",
      "type": "event"
    },
    {
      "anonymous": false,
      "inputs": [
        {
          "indexed": false,
          "name": "success",
          "type": "bool"
        },
        {
          "indexed": false,
          "name": "returnCode",
          "type": "uint16"
        },
        {
          "indexed": false,
          "name": "consumerAddress",
          "type": "address"
        }
      ],
      "name": "ConsumerAdded",
      "type": "event"
    },
    {
      "anonymous": false,
      "inputs": [
        {
          "indexed": false,
          "name": "success",
          "type": "bool"
        },
        {
          "indexed": false,
          "name": "returnCode",
          "type": "uint16"
        },
        {
          "indexed": false,
          "name": "consumerAddress",
          "type": "address"
        },
        {
          "indexed": false,
          "name": "ballance",
          "type": "uint256"
        }
      ],
      "name": "ConsumerBallanceChanged",
      "type": "event"
    },
    {
      "anonymous": false,
      "inputs": [
        {
          "indexed": false,
          "name": "success",
          "type": "bool"
        },
        {
          "indexed": false,
          "name": "returnCode",
          "type": "uint16"
        },
        {
          "indexed": false,
          "name": "level",
          "type": "uint256"
        },
        {
          "indexed": false,
          "name": "timestamp",
          "type": "uint256"
        }
      ],
      "name": "StorageLevelChanged",
      "type": "event"
    },
    {
      "anonymous": false,
      "inputs": [
        {
          "indexed": false,
          "name": "success",
          "type": "bool"
        },
        {
          "indexed": false,
          "name": "returnCode",
          "type": "uint16"
        },
        {
          "indexed": false,
          "name": "status",
          "type": "uint16"
        }
      ],
      "name": "WindmillStatusInformed",
      "type": "event"
    },
    {
      "anonymous": false,
      "inputs": [
        {
          "indexed": false,
          "name": "consumerAddress",
          "type": "address"
        }
      ],
      "name": "NotEnoughRazors",
      "type": "event"
    },
    {
      "constant": false,
      "inputs": [
        {
          "name": "consumerAddress",
          "type": "address"
        }
      ],
      "name": "addConsumer",
      "outputs": [],
      "payable": false,
      "stateMutability": "nonpayable",
      "type": "function"
    },
    {
      "constant": false,
      "inputs": [
        {
          "name": "consumerAddress",
          "type": "address"
        },
        {
          "name": "value",
          "type": "uint256"
        }
      ],
      "name": "topUpConsumer",
      "outputs": [],
      "payable": false,
      "stateMutability": "nonpayable",
      "type": "function"
    },
    {
      "constant": true,
      "inputs": [
        {
          "name": "consumerAddress",
          "type": "address"
        }
      ],
      "name": "getConsumerBalance",
      "outputs": [
        {
          "name": "",
          "type": "uint256"
        }
      ],
      "payable": false,
      "stateMutability": "view",
      "type": "function"
    },
    {
      "constant": false,
      "inputs": [
        {
          "name": "consumerAddress",
          "type": "address"
        },
        {
          "name": "value",
          "type": "uint256"
        }
      ],
      "name": "debitFromConsumer",
      "outputs": [],
      "payable": false,
      "stateMutability": "nonpayable",
      "type": "function"
    },
    {
      "constant": false,
      "inputs": [
        {
          "name": "level",
          "type": "uint256"
        },
        {
          "name": "timestamp",
          "type": "uint256"
        }
      ],
      "name": "setStorageLevel",
      "outputs": [],
      "payable": false,
      "stateMutability": "nonpayable",
      "type": "function"
    },
    {
      "constant": true,
      "inputs": [],
      "name": "getStorageLevel",
      "outputs": [
        {
          "name": "",
          "type": "uint256"
        }
      ],
      "payable": false,
      "stateMutability": "view",
      "type": "function"
    },
    {
      "constant": true,
      "inputs": [],
      "name": "getLastStorageLevelTimestamp",
      "outputs": [
        {
          "name": "",
          "type": "uint256"
        }
      ],
      "payable": false,
      "stateMutability": "view",
      "type": "function"
    },
    {
      "constant": false,
      "inputs": [
        {
          "name": "accumulatedPower",
          "type": "uint256"
        }
      ],
      "name": "incrementGeneratedPower",
      "outputs": [],
      "payable": false,
      "stateMutability": "nonpayable",
      "type": "function"
    },
    {
      "constant": true,
      "inputs": [],
      "name": "getAccumulatedGeneratedPower",
      "outputs": [
        {
          "name": "",
          "type": "uint256"
        }
      ],
      "payable": false,
      "stateMutability": "view",
      "type": "function"
    },
    {
      "constant": true,
      "inputs": [],
      "name": "getAccumulatedGeneratedRazors",
      "outputs": [
        {
          "name": "",
          "type": "uint256"
        }
      ],
      "payable": false,
      "stateMutability": "view",
      "type": "function"
    },
    {
      "constant": true,
      "inputs": [],
      "name": "getCurrentRazorBallance",
      "outputs": [
        {
          "name": "",
          "type": "uint256"
        }
      ],
      "payable": false,
      "stateMutability": "view",
      "type": "function"
    },
    {
      "constant": false,
      "inputs": [
        {
          "name": "status",
          "type": "uint16"
        }
      ],
      "name": "setWindmillStatus",
      "outputs": [],
      "payable": false,
      "stateMutability": "nonpayable",
      "type": "function"
    },
    {
      "constant": true,
      "inputs": [],
      "name": "getWindmillStatus",
      "outputs": [
        {
          "name": "",
          "type": "uint16"
        }
      ],
      "payable": false,
      "stateMutability": "view",
      "type": "function"
    }
  ],
  "bytecode": "0x6060604052630112a880600555341561001757600080fd5b336000806101000a81548173ffffffffffffffffffffffffffffffffffffffff021916908373ffffffffffffffffffffffffffffffffffffffff160217905550610db1806100666000396000f3006060604052600436106100c5576000357c0100000000000000000000000000000000000000000000000000000000900463ffffffff16806306960af3146100ca5780630a13e287146100f3578063112940f914610124578063410a5b1c1461015d5780635f2e5634146101865780636a268473146101af5780637975e29f146101d857806388a972b4146101ff578063a1747aa614610228578063babba1671461024b578063deb0c4b71461028d578063e1ab94fc146102b9578063f59b865014610306575b600080fd5b34156100d557600080fd5b6100dd610348565b6040518082815260200191505060405180910390f35b34156100fe57600080fd5b610106610352565b604051808261ffff1661ffff16815260200191505060405180910390f35b341561012f57600080fd5b61015b600480803573ffffffffffffffffffffffffffffffffffffffff1690602001909190505061036a565b005b341561016857600080fd5b61017061050a565b6040518082815260200191505060405180910390f35b341561019157600080fd5b610199610514565b6040518082815260200191505060405180910390f35b34156101ba57600080fd5b6101c261051e565b6040518082815260200191505060405180910390f35b34156101e357600080fd5b6101fd600480803561ffff169060200190919050506105a8565b005b341561020a57600080fd5b6102126106d8565b6040518082815260200191505060405180910390f35b341561023357600080fd5b61024960048080359060200190919050506106e2565b005b341561025657600080fd5b61028b600480803573ffffffffffffffffffffffffffffffffffffffff1690602001909190803590602001909190505061079e565b005b341561029857600080fd5b6102b760048080359060200190919080359060200190919050506109e5565b005b34156102c457600080fd5b6102f0600480803573ffffffffffffffffffffffffffffffffffffffff16906020019091905050610a50565b6040518082815260200191505060405180910390f35b341561031157600080fd5b610346600480803573ffffffffffffffffffffffffffffffffffffffff16906020019091908035906020019091905050610a99565b005b6000600454905090565b6000600660009054906101000a900461ffff16905090565b806000809054906101000a900473ffffffffffffffffffffffffffffffffffffffff1673ffffffffffffffffffffffffffffffffffffffff163373ffffffffffffffffffffffffffffffffffffffff161415610487576000600160008473ffffffffffffffffffffffffffffffffffffffff1673ffffffffffffffffffffffffffffffffffffffff168152602001908152602001600020819055507f3dd155332dc06f33041c3af2104b518c8defe2976a19a41464bb9254f2cb0c0f600160c88460405180841515151581526020018361ffff1681526020018273ffffffffffffffffffffffffffffffffffffffff1673ffffffffffffffffffffffffffffffffffffffff168152602001935050505060405180910390a1610506565b7f3dd155332dc06f33041c3af2104b518c8defe2976a19a41464bb9254f2cb0c0f60006101938360405180841515151581526020018361ffff1681526020018273ffffffffffffffffffffffffffffffffffffffff1673ffffffffffffffffffffffffffffffffffffffff168152602001935050505060405180910390a15b5050565b6000600554905090565b6000600254905090565b600073__BladeUtils____________________________63d828c7526004546040518263ffffffff167c01000000000000000000000000000000000000000000000000000000000281526004018082815260200191505060206040518083038186803b151561058c57600080fd5b5af4151561059957600080fd5b50505060405180519050905090565b806000809054906101000a900473ffffffffffffffffffffffffffffffffffffffff1673ffffffffffffffffffffffffffffffffffffffff163373ffffffffffffffffffffffffffffffffffffffff1614156106795781600660006101000a81548161ffff021916908361ffff1602179055507feab94d836d3d62621418043f8e06967214bce4e8288932b7e58cb2803ee6ab82600160c88460405180841515151581526020018361ffff1681526020018261ffff1661ffff168152602001935050505060405180910390a16106d4565b7feab94d836d3d62621418043f8e06967214bce4e8288932b7e58cb2803ee6ab8260006101938360405180841515151581526020018361ffff1681526020018261ffff1661ffff168152602001935050505060405180910390a15b5050565b6000600354905090565b6000809054906101000a900473ffffffffffffffffffffffffffffffffffffffff1673ffffffffffffffffffffffffffffffffffffffff163373ffffffffffffffffffffffffffffffffffffffff16141561074857806004600082825401925050819055505b7f7c4a5796d38e5515bf8b8368a7628e93a65261d6e1c9362ae4f6d545e9dc1c1b6000610193600060405180841515151581526020018361ffff168152602001828152602001935050505060405180910390a150565b816000809054906101000a900473ffffffffffffffffffffffffffffffffffffffff1673ffffffffffffffffffffffffffffffffffffffff163373ffffffffffffffffffffffffffffffffffffffff16141561091a5781600160008573ffffffffffffffffffffffffffffffffffffffff1673ffffffffffffffffffffffffffffffffffffffff16815260200190815260200160002060008282540192505081905550816005600082825403925050819055507f6fa116b2b7f5daae625708221676a9fa0e423f3da0a445d2527caf50d1bdde2a600160c885600160008873ffffffffffffffffffffffffffffffffffffffff1673ffffffffffffffffffffffffffffffffffffffff1681526020019081526020016000205460405180851515151581526020018461ffff1681526020018373ffffffffffffffffffffffffffffffffffffffff1673ffffffffffffffffffffffffffffffffffffffff16815260200182815260200194505050505060405180910390a16109e0565b7f6fa116b2b7f5daae625708221676a9fa0e423f3da0a445d2527caf50d1bdde2a600061019383600160008673ffffffffffffffffffffffffffffffffffffffff1673ffffffffffffffffffffffffffffffffffffffff1681526020019081526020016000205460405180851515151581526020018461ffff1681526020018373ffffffffffffffffffffffffffffffffffffffff1673ffffffffffffffffffffffffffffffffffffffff16815260200182815260200194505050505060405180910390a15b505050565b81600281905550806003819055507f9d8259528171f5b50220dbd66baab93c7fdf27f2acde5eb778c5331ff46a08f3600160c8848460405180851515151581526020018461ffff16815260200183815260200182815260200194505050505060405180910390a15050565b6000600160008373ffffffffffffffffffffffffffffffffffffffff1673ffffffffffffffffffffffffffffffffffffffff168152602001908152602001600020549050919050565b816000809054906101000a900473ffffffffffffffffffffffffffffffffffffffff1673ffffffffffffffffffffffffffffffffffffffff163373ffffffffffffffffffffffffffffffffffffffff161415610cba57828280600160008473ffffffffffffffffffffffffffffffffffffffff1673ffffffffffffffffffffffffffffffffffffffff16815260200190815260200160002054101515610c4f5783600160008773ffffffffffffffffffffffffffffffffffffffff1673ffffffffffffffffffffffffffffffffffffffff168152602001908152602001600020600082825403925050819055507f6fa116b2b7f5daae625708221676a9fa0e423f3da0a445d2527caf50d1bdde2a600160c887600160008a73ffffffffffffffffffffffffffffffffffffffff1673ffffffffffffffffffffffffffffffffffffffff1681526020019081526020016000205460405180851515151581526020018461ffff1681526020018373ffffffffffffffffffffffffffffffffffffffff1673ffffffffffffffffffffffffffffffffffffffff16815260200182815260200194505050505060405180910390a1610cb3565b7f71b4da8cff43a1e2cf7accac777841180946d225941d094602a8fa95693f8da282604051808273ffffffffffffffffffffffffffffffffffffffff1673ffffffffffffffffffffffffffffffffffffffff16815260200191505060405180910390a15b5050610d80565b7f6fa116b2b7f5daae625708221676a9fa0e423f3da0a445d2527caf50d1bdde2a600061019383600160008673ffffffffffffffffffffffffffffffffffffffff1673ffffffffffffffffffffffffffffffffffffffff1681526020019081526020016000205460405180851515151581526020018461ffff1681526020018373ffffffffffffffffffffffffffffffffffffffff1673ffffffffffffffffffffffffffffffffffffffff16815260200182815260200194505050505060405180910390a15b5050505600a165627a7a723058204765bb7092667b350cb9dabc9b8610851d65f5ef538bde063046dcb60df5fbbf0029",
  "source": "pragma solidity ^0.4.19;\r\n\r\nimport \"./bladeutils.sol\";\r\n\r\ncontract Supplier {\r\n\r\n    //Owner Wallet of the Contract\r\n    address private owner;\r\n    //Consumers managed by this Supplier\r\n    mapping(address => uint256) private consumers;\r\n    //Storage level (real time readings)\r\n    uint256 private storageLevel;\r\n    //Last time the storage level was informed by the device\r\n    uint256 private lastStorageLevelTimestamp;\r\n    //The total windmill acumulated power\r\n    uint256 private accumulatedGeneratedPower;\r\n    //Razor assets available to sell. If the value is negative, the community sold more than they needed.\r\n    uint256 private razorAsset = 18000 * 1000;\r\n    //Windmill current status\r\n    uint16 private windmillStatus;\r\n    //Raised when a reading is informed by the windmill\r\n    event GeneratedPowerIncremented(bool success, uint16 returnCode, uint256 accumulatedPower);\r\n    //Raised when a consumer is added\r\n    event ConsumerAdded(bool success, uint16 returnCode, address consumerAddress);\r\n    //Raised when the consumer ballance is changed\r\n    event ConsumerBallanceChanged(bool success, uint16 returnCode, address consumerAddress, uint256 ballance);\r\n    //Rased when the storage level is changed\r\n    event StorageLevelChanged(bool success, uint16 returnCode, uint256 level, uint256 timestamp);\r\n    //Raised when the Windmill Status is Changed\r\n    event WindmillStatusInformed(bool success, uint16 returnCode, uint16 status);\r\n    //Raised when customer does not have enough razor balance to exchange for energy.\r\n    event NotEnoughRazors(address consumerAddress);\r\n\r\n    /**\r\n    Constructs the contract and sets the contract owner address \r\n    to the main wallet that will operate it.\r\n     */\r\n    function Supplier() public {\r\n        owner = msg.sender;\r\n    }\r\n    /**\r\n    Modifier to validate if the sender is the owner and can\r\n    change the ballance of the consumer contract.\r\n     */\r\n    modifier _canChangeBallance(address consumerAddress) {\r\n        if(msg.sender == owner) {\r\n            _;\r\n        } else {\r\n            emit ConsumerBallanceChanged(false, 403, consumerAddress, consumers[consumerAddress]);\r\n        }\r\n    }\r\n\r\n    modifier _hasBalance(address consumerAddress, uint256 valueToDeduct) {\r\n        if (consumers[consumerAddress] >= valueToDeduct) {\r\n            _;\r\n        } else {\r\n            emit NotEnoughRazors(consumerAddress);\r\n        }\r\n    }\r\n    /**\r\n    Modifier to validate if the sender is the owner and can\r\n    add the consumer contract to the mapping.\r\n     */\r\n    modifier _canAddConsumer(address consumerAddress) {\r\n        if(msg.sender == owner) {\r\n            _;\r\n        } else {\r\n            emit ConsumerAdded(false, 403, consumerAddress);\r\n        }\r\n    }\r\n    /**\r\n    Modifier to validate if the sender is the owner and can\r\n    set the storage level.\r\n     */\r\n    modifier _canSetStorageLevel(uint256 level, uint256 timestamp) {\r\n        if(msg.sender == owner) {\r\n            _;\r\n        } else {\r\n            emit StorageLevelChanged(false, 403, level, timestamp);\r\n        }\r\n    }\r\n        /**\r\n    Modifier to validate if the sender is the owner and can\r\n    set the windmill status.\r\n     */\r\n    modifier _canSetWindmillStatus(uint16 status) {\r\n        if(msg.sender == owner) {\r\n            _;\r\n        } else {\r\n            emit WindmillStatusInformed(false, 403, status);\r\n        }\r\n    }\r\n\r\n    /**\r\n    Modifier to validate if the sender is the owner and can \r\n    set the reading of the windmill.\r\n     */\r\n    modifier _canIncrementGeneratedPower() {\r\n        if(msg.sender == owner){\r\n            _;\r\n        }\r\n        emit GeneratedPowerIncremented(false, 403, 0);\r\n    }\r\n    /**\r\n    Adds a consumer to this supplier contract.\r\n     */\r\n    function addConsumer(address consumerAddress) public _canAddConsumer(consumerAddress) {\r\n        consumers[consumerAddress] = 0;\r\n        emit ConsumerAdded(true, 200, consumerAddress);\r\n    }\r\n    /**\r\n    Tops up razors to the consumer ballance and removes from the \r\n    current razors asset.\r\n     */\r\n    function topUpConsumer(address consumerAddress, uint256 value) public _canChangeBallance(consumerAddress) {\r\n        consumers[consumerAddress] += value;\r\n        razorAsset -= value;\r\n        emit ConsumerBallanceChanged(true, 200, consumerAddress, consumers[consumerAddress]);\r\n    }\r\n    /**\r\n    Gets the consumer razor balance based on its address\r\n     */\r\n    function getConsumerBalance(address consumerAddress) public view returns (uint256) {\r\n        return consumers[consumerAddress];\r\n    }\r\n    /**\r\n    Debits razors from the consumer ballance\r\n     */\r\n    function debitFromConsumer(address consumerAddress, uint256 value) public _canChangeBallance(consumerAddress) _hasBalance(consumerAddress, value) {\r\n        consumers[consumerAddress] -= value;\r\n        emit ConsumerBallanceChanged(true, 200, consumerAddress, consumers[consumerAddress]);\r\n    }\r\n    /**\r\n    Sets the current storage level in kwh. It's supposed to set the pre-calculated\r\n    ammount of energy being provided by the storage.\r\n     */\r\n    function setStorageLevel(uint256 level, uint256 timestamp) public {\r\n        storageLevel = level;\r\n        lastStorageLevelTimestamp = timestamp;\r\n        emit StorageLevelChanged(true, 200, level, timestamp);\r\n    }\r\n    /**\r\n    Reads the last storage level in kwh.\r\n     */\r\n    function getStorageLevel() public view returns(uint256) {\r\n        return (storageLevel);\r\n    }\r\n    /**\r\n    Reads the last storage level timestamp.\r\n     */\r\n    function getLastStorageLevelTimestamp() public view returns(uint256) {\r\n        return (lastStorageLevelTimestamp);\r\n    }\r\n    /**\r\n    Increments the total accumulated power.\r\n     */\r\n    function incrementGeneratedPower(uint256 accumulatedPower) public _canIncrementGeneratedPower() {\r\n        accumulatedGeneratedPower += accumulatedPower;\r\n    }\r\n    /**\r\n    Gets the total acumulated power generated by the windmill.\r\n     */\r\n    function getAccumulatedGeneratedPower() public view returns (uint256) {\r\n        return (accumulatedGeneratedPower);\r\n    }\r\n    /**\r\n    Gets the total acumulated razors generated by the windmill.\r\n     */\r\n    function getAccumulatedGeneratedRazors() public view returns (uint256) {\r\n        return (BladeUtils.toRazors(accumulatedGeneratedPower));\r\n    }\r\n    /**\r\n    Gets the total razor generated by the windmill.\r\n     */\r\n    function getCurrentRazorBallance() public view returns (uint256) {\r\n        return (razorAsset);\r\n    }\r\n    /**\r\n    Sets the Windmill status.\r\n     */\r\n    function setWindmillStatus(uint16 status) public _canSetWindmillStatus(status) {\r\n        windmillStatus = status;\r\n        emit WindmillStatusInformed(true, 200, status);\r\n    }\r\n    /**\r\n    Gets the windmilll last status.\r\n     */\r\n    function getWindmillStatus() public view returns(uint16) {\r\n        return (windmillStatus);\r\n    }\r\n}",
  "sourcePath": "/Users/sergiopereira/Code/EnergyGridProject/contracts/supplier.sol",
  "compiler": {
    "name": "solc",
    "version": "0.4.21+commit.dfe3193c.Emscripten.clang"
  },
  "schemaVersion": "2.0.0",
  "updatedAt": "2018-05-04T17:04:54.625Z"
}